{
  "contractName": "Voting",
  "abi": [
    {
      "inputs": [],
      "stateMutability": "nonpayable",
      "type": "constructor"
    },
    {
      "anonymous": false,
      "inputs": [
        {
          "indexed": true,
          "internalType": "address",
          "name": "voterAddress",
          "type": "address"
        },
        {
          "indexed": true,
          "internalType": "uint256",
          "name": "candidateId",
          "type": "uint256"
        }
      ],
      "name": "Voted",
      "type": "event"
    },
    {
      "anonymous": false,
      "inputs": [
        {
          "indexed": true,
          "internalType": "address",
          "name": "voterAddress",
          "type": "address"
        }
      ],
      "name": "VoterRegistered",
      "type": "event"
    },
    {
      "anonymous": false,
      "inputs": [
        {
          "indexed": false,
          "internalType": "string",
          "name": "winnerName",
          "type": "string"
        }
      ],
      "name": "WinnerAnnounced",
      "type": "event"
    },
    {
      "inputs": [],
      "name": "admin",
      "outputs": [
        {
          "internalType": "address",
          "name": "",
          "type": "address"
        }
      ],
      "stateMutability": "view",
      "type": "function"
    },
    {
      "inputs": [
        {
          "internalType": "uint256",
          "name": "",
          "type": "uint256"
        }
      ],
      "name": "candidates",
      "outputs": [
        {
          "internalType": "string",
          "name": "name",
          "type": "string"
        },
        {
          "internalType": "uint256",
          "name": "voteCount",
          "type": "uint256"
        }
      ],
      "stateMutability": "view",
      "type": "function"
    },
    {
      "inputs": [
        {
          "internalType": "address",
          "name": "",
          "type": "address"
        }
      ],
      "name": "voters",
      "outputs": [
        {
          "internalType": "bool",
          "name": "isRegistered",
          "type": "bool"
        },
        {
          "internalType": "bool",
          "name": "hasVoted",
          "type": "bool"
        },
        {
          "internalType": "uint256",
          "name": "votedCandidateId",
          "type": "uint256"
        }
      ],
      "stateMutability": "view",
      "type": "function"
    },
    {
      "inputs": [],
      "name": "votingOpen",
      "outputs": [
        {
          "internalType": "bool",
          "name": "",
          "type": "bool"
        }
      ],
      "stateMutability": "view",
      "type": "function"
    },
    {
      "inputs": [],
      "name": "startVoting",
      "outputs": [],
      "stateMutability": "nonpayable",
      "type": "function"
    },
    {
      "inputs": [],
      "name": "stopVoting",
      "outputs": [],
      "stateMutability": "nonpayable",
      "type": "function"
    },
    {
      "inputs": [],
      "name": "registerVoter",
      "outputs": [],
      "stateMutability": "nonpayable",
      "type": "function"
    },
    {
      "inputs": [
        {
          "internalType": "uint256",
          "name": "_candidateId",
          "type": "uint256"
        }
      ],
      "name": "vote",
      "outputs": [],
      "stateMutability": "nonpayable",
      "type": "function"
    },
    {
      "inputs": [],
      "name": "announceWinner",
      "outputs": [],
      "stateMutability": "nonpayable",
      "type": "function"
    }
  ],
  "bytecode": "0x60806040523480156200001157600080fd5b506000805460ff60a01b196001600160a01b03199091163317168155604080516080810182526003918101918252624b617960e81b60608201529081526020808201839052600280546001810182559381905282518051939490910260008051602062000cbd83398151915201926200008e928492019062000184565b506020918201516001918201556040805160808101825260059181019182526420b4b6b0b760d91b60608201529081526000818401819052600280549384018155908190528151805192949390910260008051602062000cbd8339815191520192620001009284929091019062000184565b50602091820151600191820155604080516080810182526004918101918252634166697160e01b60608201529081526000818401819052600280549384018155908190528151805192949390910260008051602062000cbd8339815191520192620001719284929091019062000184565b5060208201518160010155505062000267565b82805462000192906200022a565b90600052602060002090601f016020900481019282620001b6576000855562000201565b82601f10620001d157805160ff191683800117855562000201565b8280016001018555821562000201579182015b8281111562000201578251825591602001919060010190620001e4565b506200020f92915062000213565b5090565b5b808211156200020f576000815560010162000214565b6002810460018216806200023f57607f821691505b602082108114156200026157634e487b7160e01b600052602260045260246000fd5b50919050565b610a4680620002776000396000f3fe608060405234801561001057600080fd5b50600436106100935760003560e01c8063a3ec138d11610066578063a3ec138d146100e7578063a95824b414610109578063ecb617d91461011e578063f851a44014610126578063fab2f86b1461013b57610093565b80630121b93f146100985780631ec6b60a146100ad5780632d8cd096146100b55780633477ee2e146100bd575b600080fd5b6100ab6100a636600461070a565b610143565b005b6100ab610292565b6100ab6102fb565b6100d06100cb36600461070a565b6104db565b6040516100de9291906107b7565b60405180910390f35b6100fa6100f53660046106dc565b610597565b6040516100de9392919061078c565b6101116105bd565b6040516100de9190610781565b6100ab6105cd565b61012e61066b565b6040516100de919061076d565b6100ab61067a565b600054600160a01b900460ff166101755760405162461bcd60e51b815260040161016c90610810565b60405180910390fd5b3360009081526001602052604090205460ff166101a45760405162461bcd60e51b815260040161016c9061083c565b33600090815260016020526040902054610100900460ff16156101d95760405162461bcd60e51b815260040161016c906108da565b60025481106101fa5760405162461bcd60e51b815260040161016c9061097f565b336000908152600160208190526040909120805461ff00191661010017815501819055600280548290811061023f57634e487b7160e01b600052603260045260246000fd5b60009182526020822060016002909202010180549161025d836109e9565b9091555050604051819033907f4d99b957a2bc29a30ebd96a7be8e68fe50a3c701db28a91436490b7d53870ca490600090a350565b6000546001600160a01b031633146102bc5760405162461bcd60e51b815260040161016c90610873565b600054600160a01b900460ff16156102e65760405162461bcd60e51b815260040161016c906108aa565b6000805460ff60a01b1916600160a01b179055565b6000546001600160a01b031633146103255760405162461bcd60e51b815260040161016c90610873565b600054600160a01b900460ff161561034f5760405162461bcd60e51b815260040161016c90610911565b6000606060005b60025481101561049f57826002828154811061038257634e487b7160e01b600052603260045260246000fd5b906000526020600020906002020160010154111561048d57600281815481106103bb57634e487b7160e01b600052603260045260246000fd5b9060005260206000209060020201600101549250600281815481106103f057634e487b7160e01b600052603260045260246000fd5b9060005260206000209060020201600001805461040c906109ae565b80601f0160208091040260200160405190810160405280929190818152602001828054610438906109ae565b80156104855780601f1061045a57610100808354040283529160200191610485565b820191906000526020600020905b81548152906001019060200180831161046857829003601f168201915b505050505091505b80610497816109e9565b915050610356565b507f9feed61bf26e08e8bc346e1c9fe2c9344002f1336758eace935bc55eb8094ea4816040516104cf91906107a4565b60405180910390a15050565b600281815481106104eb57600080fd5b906000526020600020906002020160009150905080600001805461050e906109ae565b80601f016020809104026020016040519081016040528092919081815260200182805461053a906109ae565b80156105875780601f1061055c57610100808354040283529160200191610587565b820191906000526020600020905b81548152906001019060200180831161056a57829003601f168201915b5050505050908060010154905082565b6001602081905260009182526040909120805491015460ff808316926101009004169083565b600054600160a01b900460ff1681565b600054600160a01b900460ff166105f65760405162461bcd60e51b815260040161016c90610810565b3360009081526001602052604090205460ff16156106265760405162461bcd60e51b815260040161016c90610948565b336000818152600160208190526040808320805460ff1916909217909155517fb6be2187d059cc2a55fe29e0e503b566e1e0f8c8780096e185429350acffd3dd9190a2565b6000546001600160a01b031681565b6000546001600160a01b031633146106a45760405162461bcd60e51b815260040161016c90610873565b600054600160a01b900460ff166106cd5760405162461bcd60e51b815260040161016c906107d9565b6000805460ff60a01b19169055565b6000602082840312156106ed578081fd5b81356001600160a01b0381168114610703578182fd5b9392505050565b60006020828403121561071b578081fd5b5035919050565b60008151808452815b818110156107475760208185018101518683018201520161072b565b818111156107585782602083870101525b50601f01601f19169290920160200192915050565b6001600160a01b0391909116815260200190565b901515815260200190565b92151583529015156020830152604082015260600190565b6000602082526107036020830184610722565b6000604082526107ca6040830185610722565b90508260208301529392505050565b60208082526018908201527f566f74696e6720697320616c726561647920636c6f7365640000000000000000604082015260600190565b6020808252601290820152712b37ba34b7339034b9903737ba1037b832b760711b604082015260600190565b60208082526018908201527f566f746572206973206e6f7420726567697374657265642e0000000000000000604082015260600190565b6020808252601f908201527f4f6e6c79207468652061646d696e2063616e2065786563757465207468697300604082015260600190565b6020808252601690820152752b37ba34b7339034b99030b63932b0b23c9037b832b760511b604082015260600190565b60208082526018908201527f566f7465722068617320616c726561647920766f7465642e0000000000000000604082015260600190565b60208082526018908201527f566f74696e67206973207374696c6c206f6e676f696e672e0000000000000000604082015260600190565b6020808252601c908201527f566f74657220697320616c726561647920726567697374657265642e00000000604082015260600190565b60208082526015908201527424b73b30b634b21031b0b73234b230ba329024a21760591b604082015260600190565b6002810460018216806109c257607f821691505b602082108114156109e357634e487b7160e01b600052602260045260246000fd5b50919050565b6000600019821415610a0957634e487b7160e01b81526011600452602481fd5b506001019056fea26469706673582212202c6cb004c0f1434ed8f19ea5067ae5a2019356cd777130efc47037c65b78f74164736f6c63430008000033405787fa12a823e0f2b7631cc41b3ba8828b3321ca811111fa75cd3aa3bb5ace",
  "immutableReferences": {},
  "source": "// SPDX-License-Identifier: MIT\npragma solidity ^0.8.0;\n\ncontract Voting {\n    address public admin;\n    bool public votingOpen;\n\n    struct Voter {\n        bool isRegistered;\n        bool hasVoted;\n        uint256 votedCandidateId;\n    }\n\n    struct Candidate {\n        string name;\n        uint256 voteCount;\n    }\n\n    mapping(address => Voter) public voters;\n    Candidate[] public candidates;\n\n    event VoterRegistered(address indexed voterAddress);\n    event Voted(address indexed voterAddress, uint256 indexed candidateId);\n    event WinnerAnnounced(string winnerName);\n\n    modifier onlyAdmin() {\n        require(msg.sender == admin, \"Only the admin can execute this\");\n        _;\n    }\n\n    modifier votingIsOpen() {\n        require(votingOpen, \"Voting is not open\");\n        _;\n    }\n\n    constructor() {\n        admin = msg.sender;\n        votingOpen = false;\n\n        candidates.push(Candidate(\"Kay\", 0));\n        candidates.push(Candidate(\"Aiman\", 0));\n        candidates.push(Candidate(\"Afiq\", 0));\n    }\n\n    function startVoting() public onlyAdmin {\n        require(!votingOpen, \"Voting is already open\");\n        votingOpen = true;\n    }\n\n    function stopVoting() public onlyAdmin {\n        require(votingOpen, \"Voting is already closed\");\n        votingOpen = false;\n    }\n\n    function registerVoter() public votingIsOpen {\n        require(!voters[msg.sender].isRegistered, \"Voter is already registered.\");\n        \n        voters[msg.sender].isRegistered = true;\n\n        emit VoterRegistered(msg.sender);\n    }\n\n    function vote(uint256 _candidateId) public votingIsOpen {\n        require(voters[msg.sender].isRegistered, \"Voter is not registered.\");\n        require(!voters[msg.sender].hasVoted, \"Voter has already voted.\");\n        require(_candidateId < candidates.length, \"Invalid candidate ID.\");\n\n        voters[msg.sender].hasVoted = true;\n        voters[msg.sender].votedCandidateId = _candidateId;\n        candidates[_candidateId].voteCount++;\n\n        emit Voted(msg.sender, _candidateId);\n    }\n\n    function announceWinner() public onlyAdmin {\n        require(!votingOpen, \"Voting is still ongoing.\");\n\n        uint256 winningVoteCount = 0;\n        string memory winnerName;\n\n        for (uint256 i = 0; i < candidates.length; i++) {\n            if (candidates[i].voteCount > winningVoteCount) {\n                winningVoteCount = candidates[i].voteCount;\n                winnerName = candidates[i].name;\n            }\n        }\n\n        emit WinnerAnnounced(winnerName);\n    }\n}\n",
  "sourcePath": "C:\\Users\\USER\\VotingDAPP\\contracts\\Voting.sol",
  "compiler": {
    "name": "solc",
    "version": "0.8.0+commit.c7dfd78e.Emscripten.clang"
  },
  "schemaVersion": "3.4.16",
  "updatedAt": "2024-01-16T14:19:58.730Z",
  "devdoc": {
    "kind": "dev",
    "methods": {},
    "version": 1
  },
  "userdoc": {
    "kind": "user",
    "methods": {},
    "version": 1
  }
}